{
  "contractName": "MetaCoin",
  "abi": [
    {
      "constant": true,
      "inputs": [
        {
          "internalType": "address",
          "name": "",
          "type": "address"
        }
      ],
      "name": "balanceOf",
      "outputs": [
        {
          "internalType": "uint256",
          "name": "",
          "type": "uint256"
        }
      ],
      "payable": false,
      "stateMutability": "view",
      "type": "function"
    },
    {
      "constant": true,
      "inputs": [
        {
          "internalType": "address",
          "name": "",
          "type": "address"
        }
      ],
      "name": "poolerContribution",
      "outputs": [
        {
          "internalType": "uint256",
          "name": "",
          "type": "uint256"
        }
      ],
      "payable": false,
      "stateMutability": "view",
      "type": "function"
    },
    {
      "constant": true,
      "inputs": [
        {
          "internalType": "address",
          "name": "",
          "type": "address"
        }
      ],
      "name": "premuimLeft",
      "outputs": [
        {
          "internalType": "uint256",
          "name": "",
          "type": "uint256"
        }
      ],
      "payable": false,
      "stateMutability": "view",
      "type": "function"
    },
    {
      "constant": false,
      "inputs": [
        {
          "internalType": "uint256",
          "name": "_contribution",
          "type": "uint256"
        }
      ],
      "name": "addPoolMoney",
      "outputs": [],
      "payable": false,
      "stateMutability": "nonpayable",
      "type": "function"
    },
    {
      "constant": false,
      "inputs": [
        {
          "internalType": "uint256",
          "name": "_amountWithdrawal",
          "type": "uint256"
        }
      ],
      "name": "withdrawPoolMoney",
      "outputs": [],
      "payable": false,
      "stateMutability": "nonpayable",
      "type": "function"
    },
    {
      "constant": false,
      "inputs": [],
      "name": "addInsurerDetails",
      "outputs": [],
      "payable": false,
      "stateMutability": "nonpayable",
      "type": "function"
    },
    {
      "constant": false,
      "inputs": [
        {
          "internalType": "uint256",
          "name": "_premiumPayment",
          "type": "uint256"
        }
      ],
      "name": "payPremium",
      "outputs": [],
      "payable": false,
      "stateMutability": "nonpayable",
      "type": "function"
    },
    {
      "constant": false,
      "inputs": [],
      "name": "claimInsurance",
      "outputs": [],
      "payable": false,
      "stateMutability": "nonpayable",
      "type": "function"
    },
    {
      "constant": false,
      "inputs": [],
      "name": "penalize",
      "outputs": [],
      "payable": false,
      "stateMutability": "nonpayable",
      "type": "function"
    },
    {
      "constant": false,
      "inputs": [],
      "name": "premiumCalculator",
      "outputs": [],
      "payable": false,
      "stateMutability": "nonpayable",
      "type": "function"
    },
    {
      "constant": false,
      "inputs": [],
      "name": "validateClaim",
      "outputs": [],
      "payable": false,
      "stateMutability": "nonpayable",
      "type": "function"
    }
  ],
  "bytecode": "0x60806040526000805534801561001457600080fd5b506105ba806100246000396000f3fe608060405234801561001057600080fd5b50600436106100a95760003560e01c8063a0bb931011610071578063a0bb9310146101c4578063a108b662146101ce578063a75ac608146101d8578063b0b87d82146101e2578063cd4d32e81461023a578063db60c95814610244576100a9565b8063019be2a3146100ae5780632b45bc87146101065780634364b26e1461013457806370a08231146101625780639be7612f146101ba575b600080fd5b6100f0600480360360208110156100c457600080fd5b81019080803573ffffffffffffffffffffffffffffffffffffffff169060200190929190505050610272565b6040518082815260200191505060405180910390f35b6101326004803603602081101561011c57600080fd5b810190808035906020019092919050505061028a565b005b6101606004803603602081101561014a57600080fd5b8101908080359060200190929190505050610369565b005b6101a46004803603602081101561017857600080fd5b81019080803573ffffffffffffffffffffffffffffffffffffffff1690602001909291905050506103fa565b6040518082815260200191505060405180910390f35b6101c2610412565b005b6101cc610414565b005b6101d6610416565b005b6101e0610418565b005b610224600480360360208110156101f857600080fd5b81019080803573ffffffffffffffffffffffffffffffffffffffff16906020019092919050505061041a565b6040518082815260200191505060405180910390f35b610242610432565b005b6102706004803603602081101561025a57600080fd5b8101908080359060200190929190505050610434565b005b60026020528060005260406000206000915090505481565b80600260003373ffffffffffffffffffffffffffffffffffffffff1673ffffffffffffffffffffffffffffffffffffffff1681526020019081526020016000205410156102d657600080fd5b80600260003373ffffffffffffffffffffffffffffffffffffffff1673ffffffffffffffffffffffffffffffffffffffff1681526020019081526020016000205403600260003373ffffffffffffffffffffffffffffffffffffffff1673ffffffffffffffffffffffffffffffffffffffff16815260200190815260200160002081905550806000540360008190555050565b80600360003373ffffffffffffffffffffffffffffffffffffffff1673ffffffffffffffffffffffffffffffffffffffff1681526020019081526020016000205403600360003373ffffffffffffffffffffffffffffffffffffffff1673ffffffffffffffffffffffffffffffffffffffff168152602001908152602001600020819055506103f781610553565b50565b60016020528060005260406000206000915090505481565b565b565b565b565b60036020528060005260406000206000915090505481565b565b600a811161044157600080fd5b6000600260003373ffffffffffffffffffffffffffffffffffffffff1673ffffffffffffffffffffffffffffffffffffffff1681526020019081526020016000205414156104f35780600260003373ffffffffffffffffffffffffffffffffffffffff1673ffffffffffffffffffffffffffffffffffffffff16815260200190815260200160002081905550806000808282540192505081905550600460008154809291906001019190505550610550565b80600260003373ffffffffffffffffffffffffffffffffffffffff1673ffffffffffffffffffffffffffffffffffffffff168152602001908152602001600020600082825401925050819055508060008082825401925050819055505b50565b6000600454828161056057fe5b04905060008090505b600454811015610580578080600101915050610569565b50505056fea265627a7a72315820eb9314c7b18005f04cbcd738e2ee481614542510dda6bbd4f79193777766d70164736f6c63430005100032",
  "source": "// SPDX-License-Identifier: MIT\r\npragma solidity >=0.4.25 <0.7.0;\r\n\r\nimport \"./ConvertLib.sol\";\r\n\r\n// This is just a simple example of a coin-like contract.\r\n// It is not standards compatible and cannot be expected to talk to other\r\n// coin/token contracts. If you want to create a standards-compliant\r\n// token, see: https://github.com/ConsenSys/Tokens. Cheers!\r\n\r\ncontract MetaCoin {\r\n    uint TotalPoolSize=0; //initialized to 0, will be updated when poolers join in\r\n\r\n    mapping (address => uint256) public balanceOf;\r\n    mapping (address => uint256) public poolerContribution;\r\n    mapping (address => uint256) public premuimLeft;\r\n    uint256 numPoolers;\r\n\r\n  \r\n  function addPoolMoney(uint _contribution) public {\r\n    require(_contribution>10);\r\n    if (poolerContribution[msg.sender] == 0) {\r\n      poolerContribution[msg.sender] = _contribution;\r\n      TotalPoolSize += _contribution;\r\n      numPoolers++;\r\n    }\r\n    else {\r\n      poolerContribution[msg.sender] += _contribution;\r\n      TotalPoolSize += _contribution;\r\n    }\r\n  } \r\n\r\n  function withdrawPoolMoney(uint256 _amountWithdrawal) public { \r\n    require(poolerContribution[msg.sender] >= _amountWithdrawal);\r\n    poolerContribution[msg.sender] = poolerContribution[msg.sender] - _amountWithdrawal;\r\n    TotalPoolSize = TotalPoolSize - _amountWithdrawal;\r\n  }\r\n\r\n  function addInsurerDetails() public{\r\n\r\n  }\r\n\r\n  function payPremium(uint256 _premiumPayment) public {\r\n    premuimLeft[msg.sender] = premuimLeft[msg.sender] - _premiumPayment;\r\n    rewardPremiumDistribution(_premiumPayment);\r\n  }\r\n  \r\n  function rewardPremiumDistribution(uint256 _amount) internal {\r\n    uint256 individualPremium = _amount / numPoolers;\r\n    for (uint i = 0; i < numPoolers; i++) {\r\n        // address pooler;\r\n        // pooler = poolerContribution[i];\r\n        // balanceOf[pooler] += _amount;\r\n    }\r\n\r\n  }\r\n  function claimInsurance() public {\r\n\r\n  }\r\n  function penalize() public{\r\n\r\n  }\r\n  function premiumCalculator() public {\r\n\r\n  }\r\n  function validateClaim() public {\r\n\r\n  }\r\n}\r\n",
  "sourcePath": "D:\\Memboro\\Project\\CreatorCoins\\ethereum-boilerplate\\Truffle\\contracts\\MetaCoin.sol",
  "compiler": {
    "name": "solc",
    "version": "0.5.16+commit.9c3226ce.Emscripten.clang"
  },
  "schemaVersion": "3.4.3",
  "updatedAt": "2021-11-21T16:44:31.157Z",
  "networkType": "ethereum",
  "devdoc": {
    "methods": {}
  },
  "userdoc": {
    "methods": {}
  }
}